{
	"data": {
		"bytecode": {
			"linkReferences": {},
			"object": "608060405234801561001057600080fd5b506103a4806100206000396000f3fe608060405234801561001057600080fd5b50600436106100415760003560e01c80631d5a4047146100465780635590b61014610064578063a4ef9cf414610080575b600080fd5b61004e61009c565b60405161005b9190610228565b60405180910390f35b61007e60048036038101906100799190610274565b610137565b005b61009a600480360381019061009591906102ff565b6101cc565b005b60008060008054906101000a900473ffffffffffffffffffffffffffffffffffffffff1690508073ffffffffffffffffffffffffffffffffffffffff1663d75cbf9b6040518163ffffffff1660e01b8152600401602060405180830381865afa15801561010d573d6000803e3d6000fd5b505050506040513d601f19601f820116820180604052508101906101319190610341565b91505090565b60008060009054906101000a900473ffffffffffffffffffffffffffffffffffffffff1690508073ffffffffffffffffffffffffffffffffffffffff1663fdf37e35836040518263ffffffff1660e01b81526004016101969190610228565b600060405180830381600087803b1580156101b057600080fd5b505af11580156101c4573d6000803e3d6000fd5b505050505050565b806000806101000a81548173ffffffffffffffffffffffffffffffffffffffff021916908373ffffffffffffffffffffffffffffffffffffffff16021790555050565b6000819050919050565b6102228161020f565b82525050565b600060208201905061023d6000830184610219565b92915050565b600080fd5b6102518161020f565b811461025c57600080fd5b50565b60008135905061026e81610248565b92915050565b60006020828403121561028a57610289610243565b5b60006102988482850161025f565b91505092915050565b600073ffffffffffffffffffffffffffffffffffffffff82169050919050565b60006102cc826102a1565b9050919050565b6102dc816102c1565b81146102e757600080fd5b50565b6000813590506102f9816102d3565b92915050565b60006020828403121561031557610314610243565b5b6000610323848285016102ea565b91505092915050565b60008151905061033b81610248565b92915050565b60006020828403121561035757610356610243565b5b60006103658482850161032c565b9150509291505056fea26469706673582212205c67d78f4db4dcded771161a4151a8a61fbc4c82b4a1a0e0824b6f744608515964736f6c63430008130033",
			"opcodes": "PUSH1 0x80 PUSH1 0x40 MSTORE CALLVALUE DUP1 ISZERO PUSH2 0x10 JUMPI PUSH1 0x0 DUP1 REVERT JUMPDEST POP PUSH2 0x3A4 DUP1 PUSH2 0x20 PUSH1 0x0 CODECOPY PUSH1 0x0 RETURN INVALID PUSH1 0x80 PUSH1 0x40 MSTORE CALLVALUE DUP1 ISZERO PUSH2 0x10 JUMPI PUSH1 0x0 DUP1 REVERT JUMPDEST POP PUSH1 0x4 CALLDATASIZE LT PUSH2 0x41 JUMPI PUSH1 0x0 CALLDATALOAD PUSH1 0xE0 SHR DUP1 PUSH4 0x1D5A4047 EQ PUSH2 0x46 JUMPI DUP1 PUSH4 0x5590B610 EQ PUSH2 0x64 JUMPI DUP1 PUSH4 0xA4EF9CF4 EQ PUSH2 0x80 JUMPI JUMPDEST PUSH1 0x0 DUP1 REVERT JUMPDEST PUSH2 0x4E PUSH2 0x9C JUMP JUMPDEST PUSH1 0x40 MLOAD PUSH2 0x5B SWAP2 SWAP1 PUSH2 0x228 JUMP JUMPDEST PUSH1 0x40 MLOAD DUP1 SWAP2 SUB SWAP1 RETURN JUMPDEST PUSH2 0x7E PUSH1 0x4 DUP1 CALLDATASIZE SUB DUP2 ADD SWAP1 PUSH2 0x79 SWAP2 SWAP1 PUSH2 0x274 JUMP JUMPDEST PUSH2 0x137 JUMP JUMPDEST STOP JUMPDEST PUSH2 0x9A PUSH1 0x4 DUP1 CALLDATASIZE SUB DUP2 ADD SWAP1 PUSH2 0x95 SWAP2 SWAP1 PUSH2 0x2FF JUMP JUMPDEST PUSH2 0x1CC JUMP JUMPDEST STOP JUMPDEST PUSH1 0x0 DUP1 PUSH1 0x0 DUP1 SLOAD SWAP1 PUSH2 0x100 EXP SWAP1 DIV PUSH20 0xFFFFFFFFFFFFFFFFFFFFFFFFFFFFFFFFFFFFFFFF AND SWAP1 POP DUP1 PUSH20 0xFFFFFFFFFFFFFFFFFFFFFFFFFFFFFFFFFFFFFFFF AND PUSH4 0xD75CBF9B PUSH1 0x40 MLOAD DUP2 PUSH4 0xFFFFFFFF AND PUSH1 0xE0 SHL DUP2 MSTORE PUSH1 0x4 ADD PUSH1 0x20 PUSH1 0x40 MLOAD DUP1 DUP4 SUB DUP2 DUP7 GAS STATICCALL ISZERO DUP1 ISZERO PUSH2 0x10D JUMPI RETURNDATASIZE PUSH1 0x0 DUP1 RETURNDATACOPY RETURNDATASIZE PUSH1 0x0 REVERT JUMPDEST POP POP POP POP PUSH1 0x40 MLOAD RETURNDATASIZE PUSH1 0x1F NOT PUSH1 0x1F DUP3 ADD AND DUP3 ADD DUP1 PUSH1 0x40 MSTORE POP DUP2 ADD SWAP1 PUSH2 0x131 SWAP2 SWAP1 PUSH2 0x341 JUMP JUMPDEST SWAP2 POP POP SWAP1 JUMP JUMPDEST PUSH1 0x0 DUP1 PUSH1 0x0 SWAP1 SLOAD SWAP1 PUSH2 0x100 EXP SWAP1 DIV PUSH20 0xFFFFFFFFFFFFFFFFFFFFFFFFFFFFFFFFFFFFFFFF AND SWAP1 POP DUP1 PUSH20 0xFFFFFFFFFFFFFFFFFFFFFFFFFFFFFFFFFFFFFFFF AND PUSH4 0xFDF37E35 DUP4 PUSH1 0x40 MLOAD DUP3 PUSH4 0xFFFFFFFF AND PUSH1 0xE0 SHL DUP2 MSTORE PUSH1 0x4 ADD PUSH2 0x196 SWAP2 SWAP1 PUSH2 0x228 JUMP JUMPDEST PUSH1 0x0 PUSH1 0x40 MLOAD DUP1 DUP4 SUB DUP2 PUSH1 0x0 DUP8 DUP1 EXTCODESIZE ISZERO DUP1 ISZERO PUSH2 0x1B0 JUMPI PUSH1 0x0 DUP1 REVERT JUMPDEST POP GAS CALL ISZERO DUP1 ISZERO PUSH2 0x1C4 JUMPI RETURNDATASIZE PUSH1 0x0 DUP1 RETURNDATACOPY RETURNDATASIZE PUSH1 0x0 REVERT JUMPDEST POP POP POP POP POP POP JUMP JUMPDEST DUP1 PUSH1 0x0 DUP1 PUSH2 0x100 EXP DUP2 SLOAD DUP2 PUSH20 0xFFFFFFFFFFFFFFFFFFFFFFFFFFFFFFFFFFFFFFFF MUL NOT AND SWAP1 DUP4 PUSH20 0xFFFFFFFFFFFFFFFFFFFFFFFFFFFFFFFFFFFFFFFF AND MUL OR SWAP1 SSTORE POP POP JUMP JUMPDEST PUSH1 0x0 DUP2 SWAP1 POP SWAP2 SWAP1 POP JUMP JUMPDEST PUSH2 0x222 DUP2 PUSH2 0x20F JUMP JUMPDEST DUP3 MSTORE POP POP JUMP JUMPDEST PUSH1 0x0 PUSH1 0x20 DUP3 ADD SWAP1 POP PUSH2 0x23D PUSH1 0x0 DUP4 ADD DUP5 PUSH2 0x219 JUMP JUMPDEST SWAP3 SWAP2 POP POP JUMP JUMPDEST PUSH1 0x0 DUP1 REVERT JUMPDEST PUSH2 0x251 DUP2 PUSH2 0x20F JUMP JUMPDEST DUP2 EQ PUSH2 0x25C JUMPI PUSH1 0x0 DUP1 REVERT JUMPDEST POP JUMP JUMPDEST PUSH1 0x0 DUP2 CALLDATALOAD SWAP1 POP PUSH2 0x26E DUP2 PUSH2 0x248 JUMP JUMPDEST SWAP3 SWAP2 POP POP JUMP JUMPDEST PUSH1 0x0 PUSH1 0x20 DUP3 DUP5 SUB SLT ISZERO PUSH2 0x28A JUMPI PUSH2 0x289 PUSH2 0x243 JUMP JUMPDEST JUMPDEST PUSH1 0x0 PUSH2 0x298 DUP5 DUP3 DUP6 ADD PUSH2 0x25F JUMP JUMPDEST SWAP2 POP POP SWAP3 SWAP2 POP POP JUMP JUMPDEST PUSH1 0x0 PUSH20 0xFFFFFFFFFFFFFFFFFFFFFFFFFFFFFFFFFFFFFFFF DUP3 AND SWAP1 POP SWAP2 SWAP1 POP JUMP JUMPDEST PUSH1 0x0 PUSH2 0x2CC DUP3 PUSH2 0x2A1 JUMP JUMPDEST SWAP1 POP SWAP2 SWAP1 POP JUMP JUMPDEST PUSH2 0x2DC DUP2 PUSH2 0x2C1 JUMP JUMPDEST DUP2 EQ PUSH2 0x2E7 JUMPI PUSH1 0x0 DUP1 REVERT JUMPDEST POP JUMP JUMPDEST PUSH1 0x0 DUP2 CALLDATALOAD SWAP1 POP PUSH2 0x2F9 DUP2 PUSH2 0x2D3 JUMP JUMPDEST SWAP3 SWAP2 POP POP JUMP JUMPDEST PUSH1 0x0 PUSH1 0x20 DUP3 DUP5 SUB SLT ISZERO PUSH2 0x315 JUMPI PUSH2 0x314 PUSH2 0x243 JUMP JUMPDEST JUMPDEST PUSH1 0x0 PUSH2 0x323 DUP5 DUP3 DUP6 ADD PUSH2 0x2EA JUMP JUMPDEST SWAP2 POP POP SWAP3 SWAP2 POP POP JUMP JUMPDEST PUSH1 0x0 DUP2 MLOAD SWAP1 POP PUSH2 0x33B DUP2 PUSH2 0x248 JUMP JUMPDEST SWAP3 SWAP2 POP POP JUMP JUMPDEST PUSH1 0x0 PUSH1 0x20 DUP3 DUP5 SUB SLT ISZERO PUSH2 0x357 JUMPI PUSH2 0x356 PUSH2 0x243 JUMP JUMPDEST JUMPDEST PUSH1 0x0 PUSH2 0x365 DUP5 DUP3 DUP6 ADD PUSH2 0x32C JUMP JUMPDEST SWAP2 POP POP SWAP3 SWAP2 POP POP JUMP INVALID LOG2 PUSH5 0x6970667358 0x22 SLT KECCAK256 0x5C PUSH8 0xD78F4DB4DCDED771 AND BYTE COINBASE MLOAD 0xA8 0xA6 0x1F 0xBC 0x4C DUP3 0xB4 LOG1 LOG0 0xE0 DUP3 0x4B PUSH16 0x744608515964736F6C63430008130033 "
		},
		"gasEstimates": {
			"creation": {
				"codeDepositCost": "186400",
				"executionCost": "232",
				"totalCost": "186632"
			},
			"external": {
				"appelGetNombre()": "infinite",
				"appelSetNombre(uint256)": "infinite",
				"setAddressB(address)": "24744"
			}
		},
		"methodIdentifiers": {
			"appelGetNombre()": "1d5a4047",
			"appelSetNombre(uint256)": "5590b610",
			"setAddressB(address)": "a4ef9cf4"
		}
	},
	"abi": [
		{
			"inputs": [],
			"name": "appelGetNombre",
			"outputs": [
				{
					"internalType": "uint256",
					"name": "",
					"type": "uint256"
				}
			],
			"stateMutability": "view",
			"type": "function"
		},
		{
			"inputs": [
				{
					"internalType": "uint256",
					"name": "_nombre",
					"type": "uint256"
				}
			],
			"name": "appelSetNombre",
			"outputs": [],
			"stateMutability": "nonpayable",
			"type": "function"
		},
		{
			"inputs": [
				{
					"internalType": "address",
					"name": "_addressB",
					"type": "address"
				}
			],
			"name": "setAddressB",
			"outputs": [],
			"stateMutability": "nonpayable",
			"type": "function"
		}
	]
}