{
	"data": {
		"bytecode": {
			"linkReferences": {},
			"object": "608060405234801561001057600080fd5b50610780806100206000396000f3fe608060405234801561001057600080fd5b50600436106100365760003560e01c80632b7423ab1461003b578063d0912a831461006b575b600080fd5b6100556004803603810190610050919061037a565b61009b565b60405161006291906103c9565b60405180910390f35b6100856004803603810190610080919061052a565b6100af565b6040516100929190610605565b60405180910390f35b60006100a783836100e9565b905092915050565b60606000836100bd8461010f565b6040516020016100ce929190610663565b60405160208183030381529060405290508091505092915050565b600060028284186100fa91906106e5565b8284166101079190610716565b905092915050565b60606000600161011e846101dd565b01905060008167ffffffffffffffff81111561013d5761013c6103ff565b5b6040519080825280601f01601f19166020018201604052801561016f5781602001600182028036833780820191505090505b509050600082602001820190505b6001156101d2578080600190039150507f3031323334353637383961626364656600000000000000000000000000000000600a86061a8153600a85816101c6576101c5610687565b5b0494506000850361017d575b819350505050919050565b600080600090507a184f03e93ff9f4daa797ed6e38ed64bf6a1f010000000000000000831061023b577a184f03e93ff9f4daa797ed6e38ed64bf6a1f010000000000000000838161023157610230610687565b5b0492506040810190505b6d04ee2d6d415b85acef81000000008310610278576d04ee2d6d415b85acef8100000000838161026e5761026d610687565b5b0492506020810190505b662386f26fc1000083106102a757662386f26fc10000838161029d5761029c610687565b5b0492506010810190505b6305f5e10083106102d0576305f5e10083816102c6576102c5610687565b5b0492506008810190505b61271083106102f55761271083816102eb576102ea610687565b5b0492506004810190505b60648310610318576064838161030e5761030d610687565b5b0492506002810190505b600a8310610327576001810190505b80915050919050565b6000604051905090565b600080fd5b600080fd5b6000819050919050565b61035781610344565b811461036257600080fd5b50565b6000813590506103748161034e565b92915050565b600080604083850312156103915761039061033a565b5b600061039f85828601610365565b92505060206103b085828601610365565b9150509250929050565b6103c381610344565b82525050565b60006020820190506103de60008301846103ba565b92915050565b600080fd5b600080fd5b6000601f19601f8301169050919050565b7f4e487b7100000000000000000000000000000000000000000000000000000000600052604160045260246000fd5b610437826103ee565b810181811067ffffffffffffffff82111715610456576104556103ff565b5b80604052505050565b6000610469610330565b9050610475828261042e565b919050565b600067ffffffffffffffff821115610495576104946103ff565b5b61049e826103ee565b9050602081019050919050565b82818337600083830152505050565b60006104cd6104c88461047a565b61045f565b9050828152602081018484840111156104e9576104e86103e9565b5b6104f48482856104ab565b509392505050565b600082601f830112610511576105106103e4565b5b81356105218482602086016104ba565b91505092915050565b600080604083850312156105415761054061033a565b5b600083013567ffffffffffffffff81111561055f5761055e61033f565b5b61056b858286016104fc565b925050602061057c85828601610365565b9150509250929050565b600081519050919050565b600082825260208201905092915050565b60005b838110156105c05780820151818401526020810190506105a5565b60008484015250505050565b60006105d782610586565b6105e18185610591565b93506105f18185602086016105a2565b6105fa816103ee565b840191505092915050565b6000602082019050818103600083015261061f81846105cc565b905092915050565b600081905092915050565b600061063d82610586565b6106478185610627565b93506106578185602086016105a2565b80840191505092915050565b600061066f8285610632565b915061067b8284610632565b91508190509392505050565b7f4e487b7100000000000000000000000000000000000000000000000000000000600052601260045260246000fd5b7f4e487b7100000000000000000000000000000000000000000000000000000000600052601160045260246000fd5b60006106f082610344565b91506106fb83610344565b92508261070b5761070a610687565b5b828204905092915050565b600061072182610344565b915061072c83610344565b9250828201905080821115610744576107436106b6565b5b9291505056fea2646970667358221220ead6faaa92a947cd4cfabc04e99abe1adfa28335a5f7a2c05acddb99532b9a9564736f6c63430008130033",
			"opcodes": "PUSH1 0x80 PUSH1 0x40 MSTORE CALLVALUE DUP1 ISZERO PUSH2 0x10 JUMPI PUSH1 0x0 DUP1 REVERT JUMPDEST POP PUSH2 0x780 DUP1 PUSH2 0x20 PUSH1 0x0 CODECOPY PUSH1 0x0 RETURN INVALID PUSH1 0x80 PUSH1 0x40 MSTORE CALLVALUE DUP1 ISZERO PUSH2 0x10 JUMPI PUSH1 0x0 DUP1 REVERT JUMPDEST POP PUSH1 0x4 CALLDATASIZE LT PUSH2 0x36 JUMPI PUSH1 0x0 CALLDATALOAD PUSH1 0xE0 SHR DUP1 PUSH4 0x2B7423AB EQ PUSH2 0x3B JUMPI DUP1 PUSH4 0xD0912A83 EQ PUSH2 0x6B JUMPI JUMPDEST PUSH1 0x0 DUP1 REVERT JUMPDEST PUSH2 0x55 PUSH1 0x4 DUP1 CALLDATASIZE SUB DUP2 ADD SWAP1 PUSH2 0x50 SWAP2 SWAP1 PUSH2 0x37A JUMP JUMPDEST PUSH2 0x9B JUMP JUMPDEST PUSH1 0x40 MLOAD PUSH2 0x62 SWAP2 SWAP1 PUSH2 0x3C9 JUMP JUMPDEST PUSH1 0x40 MLOAD DUP1 SWAP2 SUB SWAP1 RETURN JUMPDEST PUSH2 0x85 PUSH1 0x4 DUP1 CALLDATASIZE SUB DUP2 ADD SWAP1 PUSH2 0x80 SWAP2 SWAP1 PUSH2 0x52A JUMP JUMPDEST PUSH2 0xAF JUMP JUMPDEST PUSH1 0x40 MLOAD PUSH2 0x92 SWAP2 SWAP1 PUSH2 0x605 JUMP JUMPDEST PUSH1 0x40 MLOAD DUP1 SWAP2 SUB SWAP1 RETURN JUMPDEST PUSH1 0x0 PUSH2 0xA7 DUP4 DUP4 PUSH2 0xE9 JUMP JUMPDEST SWAP1 POP SWAP3 SWAP2 POP POP JUMP JUMPDEST PUSH1 0x60 PUSH1 0x0 DUP4 PUSH2 0xBD DUP5 PUSH2 0x10F JUMP JUMPDEST PUSH1 0x40 MLOAD PUSH1 0x20 ADD PUSH2 0xCE SWAP3 SWAP2 SWAP1 PUSH2 0x663 JUMP JUMPDEST PUSH1 0x40 MLOAD PUSH1 0x20 DUP2 DUP4 SUB SUB DUP2 MSTORE SWAP1 PUSH1 0x40 MSTORE SWAP1 POP DUP1 SWAP2 POP POP SWAP3 SWAP2 POP POP JUMP JUMPDEST PUSH1 0x0 PUSH1 0x2 DUP3 DUP5 XOR PUSH2 0xFA SWAP2 SWAP1 PUSH2 0x6E5 JUMP JUMPDEST DUP3 DUP5 AND PUSH2 0x107 SWAP2 SWAP1 PUSH2 0x716 JUMP JUMPDEST SWAP1 POP SWAP3 SWAP2 POP POP JUMP JUMPDEST PUSH1 0x60 PUSH1 0x0 PUSH1 0x1 PUSH2 0x11E DUP5 PUSH2 0x1DD JUMP JUMPDEST ADD SWAP1 POP PUSH1 0x0 DUP2 PUSH8 0xFFFFFFFFFFFFFFFF DUP2 GT ISZERO PUSH2 0x13D JUMPI PUSH2 0x13C PUSH2 0x3FF JUMP JUMPDEST JUMPDEST PUSH1 0x40 MLOAD SWAP1 DUP1 DUP3 MSTORE DUP1 PUSH1 0x1F ADD PUSH1 0x1F NOT AND PUSH1 0x20 ADD DUP3 ADD PUSH1 0x40 MSTORE DUP1 ISZERO PUSH2 0x16F JUMPI DUP2 PUSH1 0x20 ADD PUSH1 0x1 DUP3 MUL DUP1 CALLDATASIZE DUP4 CALLDATACOPY DUP1 DUP3 ADD SWAP2 POP POP SWAP1 POP JUMPDEST POP SWAP1 POP PUSH1 0x0 DUP3 PUSH1 0x20 ADD DUP3 ADD SWAP1 POP JUMPDEST PUSH1 0x1 ISZERO PUSH2 0x1D2 JUMPI DUP1 DUP1 PUSH1 0x1 SWAP1 SUB SWAP2 POP POP PUSH32 0x3031323334353637383961626364656600000000000000000000000000000000 PUSH1 0xA DUP7 MOD BYTE DUP2 MSTORE8 PUSH1 0xA DUP6 DUP2 PUSH2 0x1C6 JUMPI PUSH2 0x1C5 PUSH2 0x687 JUMP JUMPDEST JUMPDEST DIV SWAP5 POP PUSH1 0x0 DUP6 SUB PUSH2 0x17D JUMPI JUMPDEST DUP2 SWAP4 POP POP POP POP SWAP2 SWAP1 POP JUMP JUMPDEST PUSH1 0x0 DUP1 PUSH1 0x0 SWAP1 POP PUSH27 0x184F03E93FF9F4DAA797ED6E38ED64BF6A1F010000000000000000 DUP4 LT PUSH2 0x23B JUMPI PUSH27 0x184F03E93FF9F4DAA797ED6E38ED64BF6A1F010000000000000000 DUP4 DUP2 PUSH2 0x231 JUMPI PUSH2 0x230 PUSH2 0x687 JUMP JUMPDEST JUMPDEST DIV SWAP3 POP PUSH1 0x40 DUP2 ADD SWAP1 POP JUMPDEST PUSH14 0x4EE2D6D415B85ACEF8100000000 DUP4 LT PUSH2 0x278 JUMPI PUSH14 0x4EE2D6D415B85ACEF8100000000 DUP4 DUP2 PUSH2 0x26E JUMPI PUSH2 0x26D PUSH2 0x687 JUMP JUMPDEST JUMPDEST DIV SWAP3 POP PUSH1 0x20 DUP2 ADD SWAP1 POP JUMPDEST PUSH7 0x2386F26FC10000 DUP4 LT PUSH2 0x2A7 JUMPI PUSH7 0x2386F26FC10000 DUP4 DUP2 PUSH2 0x29D JUMPI PUSH2 0x29C PUSH2 0x687 JUMP JUMPDEST JUMPDEST DIV SWAP3 POP PUSH1 0x10 DUP2 ADD SWAP1 POP JUMPDEST PUSH4 0x5F5E100 DUP4 LT PUSH2 0x2D0 JUMPI PUSH4 0x5F5E100 DUP4 DUP2 PUSH2 0x2C6 JUMPI PUSH2 0x2C5 PUSH2 0x687 JUMP JUMPDEST JUMPDEST DIV SWAP3 POP PUSH1 0x8 DUP2 ADD SWAP1 POP JUMPDEST PUSH2 0x2710 DUP4 LT PUSH2 0x2F5 JUMPI PUSH2 0x2710 DUP4 DUP2 PUSH2 0x2EB JUMPI PUSH2 0x2EA PUSH2 0x687 JUMP JUMPDEST JUMPDEST DIV SWAP3 POP PUSH1 0x4 DUP2 ADD SWAP1 POP JUMPDEST PUSH1 0x64 DUP4 LT PUSH2 0x318 JUMPI PUSH1 0x64 DUP4 DUP2 PUSH2 0x30E JUMPI PUSH2 0x30D PUSH2 0x687 JUMP JUMPDEST JUMPDEST DIV SWAP3 POP PUSH1 0x2 DUP2 ADD SWAP1 POP JUMPDEST PUSH1 0xA DUP4 LT PUSH2 0x327 JUMPI PUSH1 0x1 DUP2 ADD SWAP1 POP JUMPDEST DUP1 SWAP2 POP POP SWAP2 SWAP1 POP JUMP JUMPDEST PUSH1 0x0 PUSH1 0x40 MLOAD SWAP1 POP SWAP1 JUMP JUMPDEST PUSH1 0x0 DUP1 REVERT JUMPDEST PUSH1 0x0 DUP1 REVERT JUMPDEST PUSH1 0x0 DUP2 SWAP1 POP SWAP2 SWAP1 POP JUMP JUMPDEST PUSH2 0x357 DUP2 PUSH2 0x344 JUMP JUMPDEST DUP2 EQ PUSH2 0x362 JUMPI PUSH1 0x0 DUP1 REVERT JUMPDEST POP JUMP JUMPDEST PUSH1 0x0 DUP2 CALLDATALOAD SWAP1 POP PUSH2 0x374 DUP2 PUSH2 0x34E JUMP JUMPDEST SWAP3 SWAP2 POP POP JUMP JUMPDEST PUSH1 0x0 DUP1 PUSH1 0x40 DUP4 DUP6 SUB SLT ISZERO PUSH2 0x391 JUMPI PUSH2 0x390 PUSH2 0x33A JUMP JUMPDEST JUMPDEST PUSH1 0x0 PUSH2 0x39F DUP6 DUP3 DUP7 ADD PUSH2 0x365 JUMP JUMPDEST SWAP3 POP POP PUSH1 0x20 PUSH2 0x3B0 DUP6 DUP3 DUP7 ADD PUSH2 0x365 JUMP JUMPDEST SWAP2 POP POP SWAP3 POP SWAP3 SWAP1 POP JUMP JUMPDEST PUSH2 0x3C3 DUP2 PUSH2 0x344 JUMP JUMPDEST DUP3 MSTORE POP POP JUMP JUMPDEST PUSH1 0x0 PUSH1 0x20 DUP3 ADD SWAP1 POP PUSH2 0x3DE PUSH1 0x0 DUP4 ADD DUP5 PUSH2 0x3BA JUMP JUMPDEST SWAP3 SWAP2 POP POP JUMP JUMPDEST PUSH1 0x0 DUP1 REVERT JUMPDEST PUSH1 0x0 DUP1 REVERT JUMPDEST PUSH1 0x0 PUSH1 0x1F NOT PUSH1 0x1F DUP4 ADD AND SWAP1 POP SWAP2 SWAP1 POP JUMP JUMPDEST PUSH32 0x4E487B7100000000000000000000000000000000000000000000000000000000 PUSH1 0x0 MSTORE PUSH1 0x41 PUSH1 0x4 MSTORE PUSH1 0x24 PUSH1 0x0 REVERT JUMPDEST PUSH2 0x437 DUP3 PUSH2 0x3EE JUMP JUMPDEST DUP2 ADD DUP2 DUP2 LT PUSH8 0xFFFFFFFFFFFFFFFF DUP3 GT OR ISZERO PUSH2 0x456 JUMPI PUSH2 0x455 PUSH2 0x3FF JUMP JUMPDEST JUMPDEST DUP1 PUSH1 0x40 MSTORE POP POP POP JUMP JUMPDEST PUSH1 0x0 PUSH2 0x469 PUSH2 0x330 JUMP JUMPDEST SWAP1 POP PUSH2 0x475 DUP3 DUP3 PUSH2 0x42E JUMP JUMPDEST SWAP2 SWAP1 POP JUMP JUMPDEST PUSH1 0x0 PUSH8 0xFFFFFFFFFFFFFFFF DUP3 GT ISZERO PUSH2 0x495 JUMPI PUSH2 0x494 PUSH2 0x3FF JUMP JUMPDEST JUMPDEST PUSH2 0x49E DUP3 PUSH2 0x3EE JUMP JUMPDEST SWAP1 POP PUSH1 0x20 DUP2 ADD SWAP1 POP SWAP2 SWAP1 POP JUMP JUMPDEST DUP3 DUP2 DUP4 CALLDATACOPY PUSH1 0x0 DUP4 DUP4 ADD MSTORE POP POP POP JUMP JUMPDEST PUSH1 0x0 PUSH2 0x4CD PUSH2 0x4C8 DUP5 PUSH2 0x47A JUMP JUMPDEST PUSH2 0x45F JUMP JUMPDEST SWAP1 POP DUP3 DUP2 MSTORE PUSH1 0x20 DUP2 ADD DUP5 DUP5 DUP5 ADD GT ISZERO PUSH2 0x4E9 JUMPI PUSH2 0x4E8 PUSH2 0x3E9 JUMP JUMPDEST JUMPDEST PUSH2 0x4F4 DUP5 DUP3 DUP6 PUSH2 0x4AB JUMP JUMPDEST POP SWAP4 SWAP3 POP POP POP JUMP JUMPDEST PUSH1 0x0 DUP3 PUSH1 0x1F DUP4 ADD SLT PUSH2 0x511 JUMPI PUSH2 0x510 PUSH2 0x3E4 JUMP JUMPDEST JUMPDEST DUP2 CALLDATALOAD PUSH2 0x521 DUP5 DUP3 PUSH1 0x20 DUP7 ADD PUSH2 0x4BA JUMP JUMPDEST SWAP2 POP POP SWAP3 SWAP2 POP POP JUMP JUMPDEST PUSH1 0x0 DUP1 PUSH1 0x40 DUP4 DUP6 SUB SLT ISZERO PUSH2 0x541 JUMPI PUSH2 0x540 PUSH2 0x33A JUMP JUMPDEST JUMPDEST PUSH1 0x0 DUP4 ADD CALLDATALOAD PUSH8 0xFFFFFFFFFFFFFFFF DUP2 GT ISZERO PUSH2 0x55F JUMPI PUSH2 0x55E PUSH2 0x33F JUMP JUMPDEST JUMPDEST PUSH2 0x56B DUP6 DUP3 DUP7 ADD PUSH2 0x4FC JUMP JUMPDEST SWAP3 POP POP PUSH1 0x20 PUSH2 0x57C DUP6 DUP3 DUP7 ADD PUSH2 0x365 JUMP JUMPDEST SWAP2 POP POP SWAP3 POP SWAP3 SWAP1 POP JUMP JUMPDEST PUSH1 0x0 DUP2 MLOAD SWAP1 POP SWAP2 SWAP1 POP JUMP JUMPDEST PUSH1 0x0 DUP3 DUP3 MSTORE PUSH1 0x20 DUP3 ADD SWAP1 POP SWAP3 SWAP2 POP POP JUMP JUMPDEST PUSH1 0x0 JUMPDEST DUP4 DUP2 LT ISZERO PUSH2 0x5C0 JUMPI DUP1 DUP3 ADD MLOAD DUP2 DUP5 ADD MSTORE PUSH1 0x20 DUP2 ADD SWAP1 POP PUSH2 0x5A5 JUMP JUMPDEST PUSH1 0x0 DUP5 DUP5 ADD MSTORE POP POP POP POP JUMP JUMPDEST PUSH1 0x0 PUSH2 0x5D7 DUP3 PUSH2 0x586 JUMP JUMPDEST PUSH2 0x5E1 DUP2 DUP6 PUSH2 0x591 JUMP JUMPDEST SWAP4 POP PUSH2 0x5F1 DUP2 DUP6 PUSH1 0x20 DUP7 ADD PUSH2 0x5A2 JUMP JUMPDEST PUSH2 0x5FA DUP2 PUSH2 0x3EE JUMP JUMPDEST DUP5 ADD SWAP2 POP POP SWAP3 SWAP2 POP POP JUMP JUMPDEST PUSH1 0x0 PUSH1 0x20 DUP3 ADD SWAP1 POP DUP2 DUP2 SUB PUSH1 0x0 DUP4 ADD MSTORE PUSH2 0x61F DUP2 DUP5 PUSH2 0x5CC JUMP JUMPDEST SWAP1 POP SWAP3 SWAP2 POP POP JUMP JUMPDEST PUSH1 0x0 DUP2 SWAP1 POP SWAP3 SWAP2 POP POP JUMP JUMPDEST PUSH1 0x0 PUSH2 0x63D DUP3 PUSH2 0x586 JUMP JUMPDEST PUSH2 0x647 DUP2 DUP6 PUSH2 0x627 JUMP JUMPDEST SWAP4 POP PUSH2 0x657 DUP2 DUP6 PUSH1 0x20 DUP7 ADD PUSH2 0x5A2 JUMP JUMPDEST DUP1 DUP5 ADD SWAP2 POP POP SWAP3 SWAP2 POP POP JUMP JUMPDEST PUSH1 0x0 PUSH2 0x66F DUP3 DUP6 PUSH2 0x632 JUMP JUMPDEST SWAP2 POP PUSH2 0x67B DUP3 DUP5 PUSH2 0x632 JUMP JUMPDEST SWAP2 POP DUP2 SWAP1 POP SWAP4 SWAP3 POP POP POP JUMP JUMPDEST PUSH32 0x4E487B7100000000000000000000000000000000000000000000000000000000 PUSH1 0x0 MSTORE PUSH1 0x12 PUSH1 0x4 MSTORE PUSH1 0x24 PUSH1 0x0 REVERT JUMPDEST PUSH32 0x4E487B7100000000000000000000000000000000000000000000000000000000 PUSH1 0x0 MSTORE PUSH1 0x11 PUSH1 0x4 MSTORE PUSH1 0x24 PUSH1 0x0 REVERT JUMPDEST PUSH1 0x0 PUSH2 0x6F0 DUP3 PUSH2 0x344 JUMP JUMPDEST SWAP2 POP PUSH2 0x6FB DUP4 PUSH2 0x344 JUMP JUMPDEST SWAP3 POP DUP3 PUSH2 0x70B JUMPI PUSH2 0x70A PUSH2 0x687 JUMP JUMPDEST JUMPDEST DUP3 DUP3 DIV SWAP1 POP SWAP3 SWAP2 POP POP JUMP JUMPDEST PUSH1 0x0 PUSH2 0x721 DUP3 PUSH2 0x344 JUMP JUMPDEST SWAP2 POP PUSH2 0x72C DUP4 PUSH2 0x344 JUMP JUMPDEST SWAP3 POP DUP3 DUP3 ADD SWAP1 POP DUP1 DUP3 GT ISZERO PUSH2 0x744 JUMPI PUSH2 0x743 PUSH2 0x6B6 JUMP JUMPDEST JUMPDEST SWAP3 SWAP2 POP POP JUMP INVALID LOG2 PUSH5 0x6970667358 0x22 SLT KECCAK256 0xEA 0xD6 STATICCALL 0xAA SWAP3 0xA9 SELFBALANCE 0xCD 0x4C STATICCALL 0xBC DIV 0xE9 SWAP11 0xBE BYTE 0xDF LOG2 DUP4 CALLDATALOAD 0xA5 0xF7 LOG2 0xC0 GAS 0xCD 0xDB SWAP10 MSTORE8 0x2B SWAP11 SWAP6 PUSH5 0x736F6C6343 STOP ADDMOD SGT STOP CALLER "
		},
		"gasEstimates": {
			"creation": {
				"codeDepositCost": "384000",
				"executionCost": "418",
				"totalCost": "384418"
			},
			"external": {
				"average(uint256,uint256)": "infinite",
				"concat(string,uint256)": "infinite"
			}
		},
		"methodIdentifiers": {
			"average(uint256,uint256)": "2b7423ab",
			"concat(string,uint256)": "d0912a83"
		}
	},
	"abi": [
		{
			"inputs": [
				{
					"internalType": "uint256",
					"name": "a",
					"type": "uint256"
				},
				{
					"internalType": "uint256",
					"name": "b",
					"type": "uint256"
				}
			],
			"name": "average",
			"outputs": [
				{
					"internalType": "uint256",
					"name": "",
					"type": "uint256"
				}
			],
			"stateMutability": "pure",
			"type": "function"
		},
		{
			"inputs": [
				{
					"internalType": "string",
					"name": "_string",
					"type": "string"
				},
				{
					"internalType": "uint256",
					"name": "_number",
					"type": "uint256"
				}
			],
			"name": "concat",
			"outputs": [
				{
					"internalType": "string",
					"name": "",
					"type": "string"
				}
			],
			"stateMutability": "pure",
			"type": "function"
		}
	]
}