{
	"data": {
		"bytecode": {
			"linkReferences": {},
			"object": "608060405234801561001057600080fd5b50610ae9806100206000396000f3fe608060405234801561001057600080fd5b506004361061009e5760003560e01c806363a6aa5a1161006657806363a6aa5a14610133578063afa3944d1461014f578063ba126dac1461016b578063d75cbf9b14610189578063df6fd333146101a75761009e565b806302b76f91146100a35780634237e534146100bf57806348a095a1146100dd57806350e65c94146100f957806358a50ce814610117575b600080fd5b6100bd60048036038101906100b8919061037f565b6101c5565b005b6100c76101e2565b6040516100d491906103bb565b60405180910390f35b6100f760048036038101906100f2919061040c565b6101f9565b005b610101610203565b60405161010e919061047a565b60405180910390f35b610131600480360381019061012c91906104c1565b61022d565b005b61014d60048036038101906101489190610634565b610271565b005b610169600480360381019061016491906106b3565b610284565b005b61017361028e565b604051610180919061075f565b60405180910390f35b610191610320565b60405161019e9190610790565b60405180910390f35b6101af61032a565b6040516101bc91906107ba565b60405180910390f35b80600260006101000a81548160ff02191690831515021790555050565b6000600260009054906101000a900460ff16905090565b8060008190555050565b6000600260019054906101000a900473ffffffffffffffffffffffffffffffffffffffff16905090565b80600260016101000a81548173ffffffffffffffffffffffffffffffffffffffff021916908373ffffffffffffffffffffffffffffffffffffffff16021790555050565b806003908161028091906109e1565b5050565b8060018190555050565b60606003805461029d90610804565b80601f01602080910402602001604051908101604052809291908181526020018280546102c990610804565b80156103165780601f106102eb57610100808354040283529160200191610316565b820191906000526020600020905b8154815290600101906020018083116102f957829003601f168201915b5050505050905090565b6000600154905090565b60008054905090565b6000604051905090565b600080fd5b600080fd5b60008115159050919050565b61035c81610347565b811461036757600080fd5b50565b60008135905061037981610353565b92915050565b6000602082840312156103955761039461033d565b5b60006103a38482850161036a565b91505092915050565b6103b581610347565b82525050565b60006020820190506103d060008301846103ac565b92915050565b6000819050919050565b6103e9816103d6565b81146103f457600080fd5b50565b600081359050610406816103e0565b92915050565b6000602082840312156104225761042161033d565b5b6000610430848285016103f7565b91505092915050565b600073ffffffffffffffffffffffffffffffffffffffff82169050919050565b600061046482610439565b9050919050565b61047481610459565b82525050565b600060208201905061048f600083018461046b565b92915050565b61049e81610459565b81146104a957600080fd5b50565b6000813590506104bb81610495565b92915050565b6000602082840312156104d7576104d661033d565b5b60006104e5848285016104ac565b91505092915050565b600080fd5b600080fd5b6000601f19601f8301169050919050565b7f4e487b7100000000000000000000000000000000000000000000000000000000600052604160045260246000fd5b610541826104f8565b810181811067ffffffffffffffff821117156105605761055f610509565b5b80604052505050565b6000610573610333565b905061057f8282610538565b919050565b600067ffffffffffffffff82111561059f5761059e610509565b5b6105a8826104f8565b9050602081019050919050565b82818337600083830152505050565b60006105d76105d284610584565b610569565b9050828152602081018484840111156105f3576105f26104f3565b5b6105fe8482856105b5565b509392505050565b600082601f83011261061b5761061a6104ee565b5b813561062b8482602086016105c4565b91505092915050565b60006020828403121561064a5761064961033d565b5b600082013567ffffffffffffffff81111561066857610667610342565b5b61067484828501610606565b91505092915050565b6000819050919050565b6106908161067d565b811461069b57600080fd5b50565b6000813590506106ad81610687565b92915050565b6000602082840312156106c9576106c861033d565b5b60006106d78482850161069e565b91505092915050565b600081519050919050565b600082825260208201905092915050565b60005b8381101561071a5780820151818401526020810190506106ff565b60008484015250505050565b6000610731826106e0565b61073b81856106eb565b935061074b8185602086016106fc565b610754816104f8565b840191505092915050565b600060208201905081810360008301526107798184610726565b905092915050565b61078a8161067d565b82525050565b60006020820190506107a56000830184610781565b92915050565b6107b4816103d6565b82525050565b60006020820190506107cf60008301846107ab565b92915050565b7f4e487b7100000000000000000000000000000000000000000000000000000000600052602260045260246000fd5b6000600282049050600182168061081c57607f821691505b60208210810361082f5761082e6107d5565b5b50919050565b60008190508160005260206000209050919050565b60006020601f8301049050919050565b600082821b905092915050565b6000600883026108977fffffffffffffffffffffffffffffffffffffffffffffffffffffffffffffffff8261085a565b6108a1868361085a565b95508019841693508086168417925050509392505050565b6000819050919050565b60006108de6108d96108d4846103d6565b6108b9565b6103d6565b9050919050565b6000819050919050565b6108f8836108c3565b61090c610904826108e5565b848454610867565b825550505050565b600090565b610921610914565b61092c8184846108ef565b505050565b5b8181101561095057610945600082610919565b600181019050610932565b5050565b601f8211156109955761096681610835565b61096f8461084a565b8101602085101561097e578190505b61099261098a8561084a565b830182610931565b50505b505050565b600082821c905092915050565b60006109b86000198460080261099a565b1980831691505092915050565b60006109d183836109a7565b9150826002028217905092915050565b6109ea826106e0565b67ffffffffffffffff811115610a0357610a02610509565b5b610a0d8254610804565b610a18828285610954565b600060209050601f831160018114610a4b5760008415610a39578287015190505b610a4385826109c5565b865550610aab565b601f198416610a5986610835565b60005b82811015610a8157848901518255600182019150602085019450602081019050610a5c565b86831015610a9e5784890151610a9a601f8916826109a7565b8355505b6001600288020188555050505b50505050505056fea26469706673582212202dceed300aea39511340deafe12ca5654c43463da2d42682c4f7a60d8b593edd64736f6c63430008130033",
			"opcodes": "PUSH1 0x80 PUSH1 0x40 MSTORE CALLVALUE DUP1 ISZERO PUSH2 0x10 JUMPI PUSH1 0x0 DUP1 REVERT JUMPDEST POP PUSH2 0xAE9 DUP1 PUSH2 0x20 PUSH1 0x0 CODECOPY PUSH1 0x0 RETURN INVALID PUSH1 0x80 PUSH1 0x40 MSTORE CALLVALUE DUP1 ISZERO PUSH2 0x10 JUMPI PUSH1 0x0 DUP1 REVERT JUMPDEST POP PUSH1 0x4 CALLDATASIZE LT PUSH2 0x9E JUMPI PUSH1 0x0 CALLDATALOAD PUSH1 0xE0 SHR DUP1 PUSH4 0x63A6AA5A GT PUSH2 0x66 JUMPI DUP1 PUSH4 0x63A6AA5A EQ PUSH2 0x133 JUMPI DUP1 PUSH4 0xAFA3944D EQ PUSH2 0x14F JUMPI DUP1 PUSH4 0xBA126DAC EQ PUSH2 0x16B JUMPI DUP1 PUSH4 0xD75CBF9B EQ PUSH2 0x189 JUMPI DUP1 PUSH4 0xDF6FD333 EQ PUSH2 0x1A7 JUMPI PUSH2 0x9E JUMP JUMPDEST DUP1 PUSH4 0x2B76F91 EQ PUSH2 0xA3 JUMPI DUP1 PUSH4 0x4237E534 EQ PUSH2 0xBF JUMPI DUP1 PUSH4 0x48A095A1 EQ PUSH2 0xDD JUMPI DUP1 PUSH4 0x50E65C94 EQ PUSH2 0xF9 JUMPI DUP1 PUSH4 0x58A50CE8 EQ PUSH2 0x117 JUMPI JUMPDEST PUSH1 0x0 DUP1 REVERT JUMPDEST PUSH2 0xBD PUSH1 0x4 DUP1 CALLDATASIZE SUB DUP2 ADD SWAP1 PUSH2 0xB8 SWAP2 SWAP1 PUSH2 0x37F JUMP JUMPDEST PUSH2 0x1C5 JUMP JUMPDEST STOP JUMPDEST PUSH2 0xC7 PUSH2 0x1E2 JUMP JUMPDEST PUSH1 0x40 MLOAD PUSH2 0xD4 SWAP2 SWAP1 PUSH2 0x3BB JUMP JUMPDEST PUSH1 0x40 MLOAD DUP1 SWAP2 SUB SWAP1 RETURN JUMPDEST PUSH2 0xF7 PUSH1 0x4 DUP1 CALLDATASIZE SUB DUP2 ADD SWAP1 PUSH2 0xF2 SWAP2 SWAP1 PUSH2 0x40C JUMP JUMPDEST PUSH2 0x1F9 JUMP JUMPDEST STOP JUMPDEST PUSH2 0x101 PUSH2 0x203 JUMP JUMPDEST PUSH1 0x40 MLOAD PUSH2 0x10E SWAP2 SWAP1 PUSH2 0x47A JUMP JUMPDEST PUSH1 0x40 MLOAD DUP1 SWAP2 SUB SWAP1 RETURN JUMPDEST PUSH2 0x131 PUSH1 0x4 DUP1 CALLDATASIZE SUB DUP2 ADD SWAP1 PUSH2 0x12C SWAP2 SWAP1 PUSH2 0x4C1 JUMP JUMPDEST PUSH2 0x22D JUMP JUMPDEST STOP JUMPDEST PUSH2 0x14D PUSH1 0x4 DUP1 CALLDATASIZE SUB DUP2 ADD SWAP1 PUSH2 0x148 SWAP2 SWAP1 PUSH2 0x634 JUMP JUMPDEST PUSH2 0x271 JUMP JUMPDEST STOP JUMPDEST PUSH2 0x169 PUSH1 0x4 DUP1 CALLDATASIZE SUB DUP2 ADD SWAP1 PUSH2 0x164 SWAP2 SWAP1 PUSH2 0x6B3 JUMP JUMPDEST PUSH2 0x284 JUMP JUMPDEST STOP JUMPDEST PUSH2 0x173 PUSH2 0x28E JUMP JUMPDEST PUSH1 0x40 MLOAD PUSH2 0x180 SWAP2 SWAP1 PUSH2 0x75F JUMP JUMPDEST PUSH1 0x40 MLOAD DUP1 SWAP2 SUB SWAP1 RETURN JUMPDEST PUSH2 0x191 PUSH2 0x320 JUMP JUMPDEST PUSH1 0x40 MLOAD PUSH2 0x19E SWAP2 SWAP1 PUSH2 0x790 JUMP JUMPDEST PUSH1 0x40 MLOAD DUP1 SWAP2 SUB SWAP1 RETURN JUMPDEST PUSH2 0x1AF PUSH2 0x32A JUMP JUMPDEST PUSH1 0x40 MLOAD PUSH2 0x1BC SWAP2 SWAP1 PUSH2 0x7BA JUMP JUMPDEST PUSH1 0x40 MLOAD DUP1 SWAP2 SUB SWAP1 RETURN JUMPDEST DUP1 PUSH1 0x2 PUSH1 0x0 PUSH2 0x100 EXP DUP2 SLOAD DUP2 PUSH1 0xFF MUL NOT AND SWAP1 DUP4 ISZERO ISZERO MUL OR SWAP1 SSTORE POP POP JUMP JUMPDEST PUSH1 0x0 PUSH1 0x2 PUSH1 0x0 SWAP1 SLOAD SWAP1 PUSH2 0x100 EXP SWAP1 DIV PUSH1 0xFF AND SWAP1 POP SWAP1 JUMP JUMPDEST DUP1 PUSH1 0x0 DUP2 SWAP1 SSTORE POP POP JUMP JUMPDEST PUSH1 0x0 PUSH1 0x2 PUSH1 0x1 SWAP1 SLOAD SWAP1 PUSH2 0x100 EXP SWAP1 DIV PUSH20 0xFFFFFFFFFFFFFFFFFFFFFFFFFFFFFFFFFFFFFFFF AND SWAP1 POP SWAP1 JUMP JUMPDEST DUP1 PUSH1 0x2 PUSH1 0x1 PUSH2 0x100 EXP DUP2 SLOAD DUP2 PUSH20 0xFFFFFFFFFFFFFFFFFFFFFFFFFFFFFFFFFFFFFFFF MUL NOT AND SWAP1 DUP4 PUSH20 0xFFFFFFFFFFFFFFFFFFFFFFFFFFFFFFFFFFFFFFFF AND MUL OR SWAP1 SSTORE POP POP JUMP JUMPDEST DUP1 PUSH1 0x3 SWAP1 DUP2 PUSH2 0x280 SWAP2 SWAP1 PUSH2 0x9E1 JUMP JUMPDEST POP POP JUMP JUMPDEST DUP1 PUSH1 0x1 DUP2 SWAP1 SSTORE POP POP JUMP JUMPDEST PUSH1 0x60 PUSH1 0x3 DUP1 SLOAD PUSH2 0x29D SWAP1 PUSH2 0x804 JUMP JUMPDEST DUP1 PUSH1 0x1F ADD PUSH1 0x20 DUP1 SWAP2 DIV MUL PUSH1 0x20 ADD PUSH1 0x40 MLOAD SWAP1 DUP2 ADD PUSH1 0x40 MSTORE DUP1 SWAP3 SWAP2 SWAP1 DUP2 DUP2 MSTORE PUSH1 0x20 ADD DUP3 DUP1 SLOAD PUSH2 0x2C9 SWAP1 PUSH2 0x804 JUMP JUMPDEST DUP1 ISZERO PUSH2 0x316 JUMPI DUP1 PUSH1 0x1F LT PUSH2 0x2EB JUMPI PUSH2 0x100 DUP1 DUP4 SLOAD DIV MUL DUP4 MSTORE SWAP2 PUSH1 0x20 ADD SWAP2 PUSH2 0x316 JUMP JUMPDEST DUP3 ADD SWAP2 SWAP1 PUSH1 0x0 MSTORE PUSH1 0x20 PUSH1 0x0 KECCAK256 SWAP1 JUMPDEST DUP2 SLOAD DUP2 MSTORE SWAP1 PUSH1 0x1 ADD SWAP1 PUSH1 0x20 ADD DUP1 DUP4 GT PUSH2 0x2F9 JUMPI DUP3 SWAP1 SUB PUSH1 0x1F AND DUP3 ADD SWAP2 JUMPDEST POP POP POP POP POP SWAP1 POP SWAP1 JUMP JUMPDEST PUSH1 0x0 PUSH1 0x1 SLOAD SWAP1 POP SWAP1 JUMP JUMPDEST PUSH1 0x0 DUP1 SLOAD SWAP1 POP SWAP1 JUMP JUMPDEST PUSH1 0x0 PUSH1 0x40 MLOAD SWAP1 POP SWAP1 JUMP JUMPDEST PUSH1 0x0 DUP1 REVERT JUMPDEST PUSH1 0x0 DUP1 REVERT JUMPDEST PUSH1 0x0 DUP2 ISZERO ISZERO SWAP1 POP SWAP2 SWAP1 POP JUMP JUMPDEST PUSH2 0x35C DUP2 PUSH2 0x347 JUMP JUMPDEST DUP2 EQ PUSH2 0x367 JUMPI PUSH1 0x0 DUP1 REVERT JUMPDEST POP JUMP JUMPDEST PUSH1 0x0 DUP2 CALLDATALOAD SWAP1 POP PUSH2 0x379 DUP2 PUSH2 0x353 JUMP JUMPDEST SWAP3 SWAP2 POP POP JUMP JUMPDEST PUSH1 0x0 PUSH1 0x20 DUP3 DUP5 SUB SLT ISZERO PUSH2 0x395 JUMPI PUSH2 0x394 PUSH2 0x33D JUMP JUMPDEST JUMPDEST PUSH1 0x0 PUSH2 0x3A3 DUP5 DUP3 DUP6 ADD PUSH2 0x36A JUMP JUMPDEST SWAP2 POP POP SWAP3 SWAP2 POP POP JUMP JUMPDEST PUSH2 0x3B5 DUP2 PUSH2 0x347 JUMP JUMPDEST DUP3 MSTORE POP POP JUMP JUMPDEST PUSH1 0x0 PUSH1 0x20 DUP3 ADD SWAP1 POP PUSH2 0x3D0 PUSH1 0x0 DUP4 ADD DUP5 PUSH2 0x3AC JUMP JUMPDEST SWAP3 SWAP2 POP POP JUMP JUMPDEST PUSH1 0x0 DUP2 SWAP1 POP SWAP2 SWAP1 POP JUMP JUMPDEST PUSH2 0x3E9 DUP2 PUSH2 0x3D6 JUMP JUMPDEST DUP2 EQ PUSH2 0x3F4 JUMPI PUSH1 0x0 DUP1 REVERT JUMPDEST POP JUMP JUMPDEST PUSH1 0x0 DUP2 CALLDATALOAD SWAP1 POP PUSH2 0x406 DUP2 PUSH2 0x3E0 JUMP JUMPDEST SWAP3 SWAP2 POP POP JUMP JUMPDEST PUSH1 0x0 PUSH1 0x20 DUP3 DUP5 SUB SLT ISZERO PUSH2 0x422 JUMPI PUSH2 0x421 PUSH2 0x33D JUMP JUMPDEST JUMPDEST PUSH1 0x0 PUSH2 0x430 DUP5 DUP3 DUP6 ADD PUSH2 0x3F7 JUMP JUMPDEST SWAP2 POP POP SWAP3 SWAP2 POP POP JUMP JUMPDEST PUSH1 0x0 PUSH20 0xFFFFFFFFFFFFFFFFFFFFFFFFFFFFFFFFFFFFFFFF DUP3 AND SWAP1 POP SWAP2 SWAP1 POP JUMP JUMPDEST PUSH1 0x0 PUSH2 0x464 DUP3 PUSH2 0x439 JUMP JUMPDEST SWAP1 POP SWAP2 SWAP1 POP JUMP JUMPDEST PUSH2 0x474 DUP2 PUSH2 0x459 JUMP JUMPDEST DUP3 MSTORE POP POP JUMP JUMPDEST PUSH1 0x0 PUSH1 0x20 DUP3 ADD SWAP1 POP PUSH2 0x48F PUSH1 0x0 DUP4 ADD DUP5 PUSH2 0x46B JUMP JUMPDEST SWAP3 SWAP2 POP POP JUMP JUMPDEST PUSH2 0x49E DUP2 PUSH2 0x459 JUMP JUMPDEST DUP2 EQ PUSH2 0x4A9 JUMPI PUSH1 0x0 DUP1 REVERT JUMPDEST POP JUMP JUMPDEST PUSH1 0x0 DUP2 CALLDATALOAD SWAP1 POP PUSH2 0x4BB DUP2 PUSH2 0x495 JUMP JUMPDEST SWAP3 SWAP2 POP POP JUMP JUMPDEST PUSH1 0x0 PUSH1 0x20 DUP3 DUP5 SUB SLT ISZERO PUSH2 0x4D7 JUMPI PUSH2 0x4D6 PUSH2 0x33D JUMP JUMPDEST JUMPDEST PUSH1 0x0 PUSH2 0x4E5 DUP5 DUP3 DUP6 ADD PUSH2 0x4AC JUMP JUMPDEST SWAP2 POP POP SWAP3 SWAP2 POP POP JUMP JUMPDEST PUSH1 0x0 DUP1 REVERT JUMPDEST PUSH1 0x0 DUP1 REVERT JUMPDEST PUSH1 0x0 PUSH1 0x1F NOT PUSH1 0x1F DUP4 ADD AND SWAP1 POP SWAP2 SWAP1 POP JUMP JUMPDEST PUSH32 0x4E487B7100000000000000000000000000000000000000000000000000000000 PUSH1 0x0 MSTORE PUSH1 0x41 PUSH1 0x4 MSTORE PUSH1 0x24 PUSH1 0x0 REVERT JUMPDEST PUSH2 0x541 DUP3 PUSH2 0x4F8 JUMP JUMPDEST DUP2 ADD DUP2 DUP2 LT PUSH8 0xFFFFFFFFFFFFFFFF DUP3 GT OR ISZERO PUSH2 0x560 JUMPI PUSH2 0x55F PUSH2 0x509 JUMP JUMPDEST JUMPDEST DUP1 PUSH1 0x40 MSTORE POP POP POP JUMP JUMPDEST PUSH1 0x0 PUSH2 0x573 PUSH2 0x333 JUMP JUMPDEST SWAP1 POP PUSH2 0x57F DUP3 DUP3 PUSH2 0x538 JUMP JUMPDEST SWAP2 SWAP1 POP JUMP JUMPDEST PUSH1 0x0 PUSH8 0xFFFFFFFFFFFFFFFF DUP3 GT ISZERO PUSH2 0x59F JUMPI PUSH2 0x59E PUSH2 0x509 JUMP JUMPDEST JUMPDEST PUSH2 0x5A8 DUP3 PUSH2 0x4F8 JUMP JUMPDEST SWAP1 POP PUSH1 0x20 DUP2 ADD SWAP1 POP SWAP2 SWAP1 POP JUMP JUMPDEST DUP3 DUP2 DUP4 CALLDATACOPY PUSH1 0x0 DUP4 DUP4 ADD MSTORE POP POP POP JUMP JUMPDEST PUSH1 0x0 PUSH2 0x5D7 PUSH2 0x5D2 DUP5 PUSH2 0x584 JUMP JUMPDEST PUSH2 0x569 JUMP JUMPDEST SWAP1 POP DUP3 DUP2 MSTORE PUSH1 0x20 DUP2 ADD DUP5 DUP5 DUP5 ADD GT ISZERO PUSH2 0x5F3 JUMPI PUSH2 0x5F2 PUSH2 0x4F3 JUMP JUMPDEST JUMPDEST PUSH2 0x5FE DUP5 DUP3 DUP6 PUSH2 0x5B5 JUMP JUMPDEST POP SWAP4 SWAP3 POP POP POP JUMP JUMPDEST PUSH1 0x0 DUP3 PUSH1 0x1F DUP4 ADD SLT PUSH2 0x61B JUMPI PUSH2 0x61A PUSH2 0x4EE JUMP JUMPDEST JUMPDEST DUP2 CALLDATALOAD PUSH2 0x62B DUP5 DUP3 PUSH1 0x20 DUP7 ADD PUSH2 0x5C4 JUMP JUMPDEST SWAP2 POP POP SWAP3 SWAP2 POP POP JUMP JUMPDEST PUSH1 0x0 PUSH1 0x20 DUP3 DUP5 SUB SLT ISZERO PUSH2 0x64A JUMPI PUSH2 0x649 PUSH2 0x33D JUMP JUMPDEST JUMPDEST PUSH1 0x0 DUP3 ADD CALLDATALOAD PUSH8 0xFFFFFFFFFFFFFFFF DUP2 GT ISZERO PUSH2 0x668 JUMPI PUSH2 0x667 PUSH2 0x342 JUMP JUMPDEST JUMPDEST PUSH2 0x674 DUP5 DUP3 DUP6 ADD PUSH2 0x606 JUMP JUMPDEST SWAP2 POP POP SWAP3 SWAP2 POP POP JUMP JUMPDEST PUSH1 0x0 DUP2 SWAP1 POP SWAP2 SWAP1 POP JUMP JUMPDEST PUSH2 0x690 DUP2 PUSH2 0x67D JUMP JUMPDEST DUP2 EQ PUSH2 0x69B JUMPI PUSH1 0x0 DUP1 REVERT JUMPDEST POP JUMP JUMPDEST PUSH1 0x0 DUP2 CALLDATALOAD SWAP1 POP PUSH2 0x6AD DUP2 PUSH2 0x687 JUMP JUMPDEST SWAP3 SWAP2 POP POP JUMP JUMPDEST PUSH1 0x0 PUSH1 0x20 DUP3 DUP5 SUB SLT ISZERO PUSH2 0x6C9 JUMPI PUSH2 0x6C8 PUSH2 0x33D JUMP JUMPDEST JUMPDEST PUSH1 0x0 PUSH2 0x6D7 DUP5 DUP3 DUP6 ADD PUSH2 0x69E JUMP JUMPDEST SWAP2 POP POP SWAP3 SWAP2 POP POP JUMP JUMPDEST PUSH1 0x0 DUP2 MLOAD SWAP1 POP SWAP2 SWAP1 POP JUMP JUMPDEST PUSH1 0x0 DUP3 DUP3 MSTORE PUSH1 0x20 DUP3 ADD SWAP1 POP SWAP3 SWAP2 POP POP JUMP JUMPDEST PUSH1 0x0 JUMPDEST DUP4 DUP2 LT ISZERO PUSH2 0x71A JUMPI DUP1 DUP3 ADD MLOAD DUP2 DUP5 ADD MSTORE PUSH1 0x20 DUP2 ADD SWAP1 POP PUSH2 0x6FF JUMP JUMPDEST PUSH1 0x0 DUP5 DUP5 ADD MSTORE POP POP POP POP JUMP JUMPDEST PUSH1 0x0 PUSH2 0x731 DUP3 PUSH2 0x6E0 JUMP JUMPDEST PUSH2 0x73B DUP2 DUP6 PUSH2 0x6EB JUMP JUMPDEST SWAP4 POP PUSH2 0x74B DUP2 DUP6 PUSH1 0x20 DUP7 ADD PUSH2 0x6FC JUMP JUMPDEST PUSH2 0x754 DUP2 PUSH2 0x4F8 JUMP JUMPDEST DUP5 ADD SWAP2 POP POP SWAP3 SWAP2 POP POP JUMP JUMPDEST PUSH1 0x0 PUSH1 0x20 DUP3 ADD SWAP1 POP DUP2 DUP2 SUB PUSH1 0x0 DUP4 ADD MSTORE PUSH2 0x779 DUP2 DUP5 PUSH2 0x726 JUMP JUMPDEST SWAP1 POP SWAP3 SWAP2 POP POP JUMP JUMPDEST PUSH2 0x78A DUP2 PUSH2 0x67D JUMP JUMPDEST DUP3 MSTORE POP POP JUMP JUMPDEST PUSH1 0x0 PUSH1 0x20 DUP3 ADD SWAP1 POP PUSH2 0x7A5 PUSH1 0x0 DUP4 ADD DUP5 PUSH2 0x781 JUMP JUMPDEST SWAP3 SWAP2 POP POP JUMP JUMPDEST PUSH2 0x7B4 DUP2 PUSH2 0x3D6 JUMP JUMPDEST DUP3 MSTORE POP POP JUMP JUMPDEST PUSH1 0x0 PUSH1 0x20 DUP3 ADD SWAP1 POP PUSH2 0x7CF PUSH1 0x0 DUP4 ADD DUP5 PUSH2 0x7AB JUMP JUMPDEST SWAP3 SWAP2 POP POP JUMP JUMPDEST PUSH32 0x4E487B7100000000000000000000000000000000000000000000000000000000 PUSH1 0x0 MSTORE PUSH1 0x22 PUSH1 0x4 MSTORE PUSH1 0x24 PUSH1 0x0 REVERT JUMPDEST PUSH1 0x0 PUSH1 0x2 DUP3 DIV SWAP1 POP PUSH1 0x1 DUP3 AND DUP1 PUSH2 0x81C JUMPI PUSH1 0x7F DUP3 AND SWAP2 POP JUMPDEST PUSH1 0x20 DUP3 LT DUP2 SUB PUSH2 0x82F JUMPI PUSH2 0x82E PUSH2 0x7D5 JUMP JUMPDEST JUMPDEST POP SWAP2 SWAP1 POP JUMP JUMPDEST PUSH1 0x0 DUP2 SWAP1 POP DUP2 PUSH1 0x0 MSTORE PUSH1 0x20 PUSH1 0x0 KECCAK256 SWAP1 POP SWAP2 SWAP1 POP JUMP JUMPDEST PUSH1 0x0 PUSH1 0x20 PUSH1 0x1F DUP4 ADD DIV SWAP1 POP SWAP2 SWAP1 POP JUMP JUMPDEST PUSH1 0x0 DUP3 DUP3 SHL SWAP1 POP SWAP3 SWAP2 POP POP JUMP JUMPDEST PUSH1 0x0 PUSH1 0x8 DUP4 MUL PUSH2 0x897 PUSH32 0xFFFFFFFFFFFFFFFFFFFFFFFFFFFFFFFFFFFFFFFFFFFFFFFFFFFFFFFFFFFFFFFF DUP3 PUSH2 0x85A JUMP JUMPDEST PUSH2 0x8A1 DUP7 DUP4 PUSH2 0x85A JUMP JUMPDEST SWAP6 POP DUP1 NOT DUP5 AND SWAP4 POP DUP1 DUP7 AND DUP5 OR SWAP3 POP POP POP SWAP4 SWAP3 POP POP POP JUMP JUMPDEST PUSH1 0x0 DUP2 SWAP1 POP SWAP2 SWAP1 POP JUMP JUMPDEST PUSH1 0x0 PUSH2 0x8DE PUSH2 0x8D9 PUSH2 0x8D4 DUP5 PUSH2 0x3D6 JUMP JUMPDEST PUSH2 0x8B9 JUMP JUMPDEST PUSH2 0x3D6 JUMP JUMPDEST SWAP1 POP SWAP2 SWAP1 POP JUMP JUMPDEST PUSH1 0x0 DUP2 SWAP1 POP SWAP2 SWAP1 POP JUMP JUMPDEST PUSH2 0x8F8 DUP4 PUSH2 0x8C3 JUMP JUMPDEST PUSH2 0x90C PUSH2 0x904 DUP3 PUSH2 0x8E5 JUMP JUMPDEST DUP5 DUP5 SLOAD PUSH2 0x867 JUMP JUMPDEST DUP3 SSTORE POP POP POP POP JUMP JUMPDEST PUSH1 0x0 SWAP1 JUMP JUMPDEST PUSH2 0x921 PUSH2 0x914 JUMP JUMPDEST PUSH2 0x92C DUP2 DUP5 DUP5 PUSH2 0x8EF JUMP JUMPDEST POP POP POP JUMP JUMPDEST JUMPDEST DUP2 DUP2 LT ISZERO PUSH2 0x950 JUMPI PUSH2 0x945 PUSH1 0x0 DUP3 PUSH2 0x919 JUMP JUMPDEST PUSH1 0x1 DUP2 ADD SWAP1 POP PUSH2 0x932 JUMP JUMPDEST POP POP JUMP JUMPDEST PUSH1 0x1F DUP3 GT ISZERO PUSH2 0x995 JUMPI PUSH2 0x966 DUP2 PUSH2 0x835 JUMP JUMPDEST PUSH2 0x96F DUP5 PUSH2 0x84A JUMP JUMPDEST DUP2 ADD PUSH1 0x20 DUP6 LT ISZERO PUSH2 0x97E JUMPI DUP2 SWAP1 POP JUMPDEST PUSH2 0x992 PUSH2 0x98A DUP6 PUSH2 0x84A JUMP JUMPDEST DUP4 ADD DUP3 PUSH2 0x931 JUMP JUMPDEST POP POP JUMPDEST POP POP POP JUMP JUMPDEST PUSH1 0x0 DUP3 DUP3 SHR SWAP1 POP SWAP3 SWAP2 POP POP JUMP JUMPDEST PUSH1 0x0 PUSH2 0x9B8 PUSH1 0x0 NOT DUP5 PUSH1 0x8 MUL PUSH2 0x99A JUMP JUMPDEST NOT DUP1 DUP4 AND SWAP2 POP POP SWAP3 SWAP2 POP POP JUMP JUMPDEST PUSH1 0x0 PUSH2 0x9D1 DUP4 DUP4 PUSH2 0x9A7 JUMP JUMPDEST SWAP2 POP DUP3 PUSH1 0x2 MUL DUP3 OR SWAP1 POP SWAP3 SWAP2 POP POP JUMP JUMPDEST PUSH2 0x9EA DUP3 PUSH2 0x6E0 JUMP JUMPDEST PUSH8 0xFFFFFFFFFFFFFFFF DUP2 GT ISZERO PUSH2 0xA03 JUMPI PUSH2 0xA02 PUSH2 0x509 JUMP JUMPDEST JUMPDEST PUSH2 0xA0D DUP3 SLOAD PUSH2 0x804 JUMP JUMPDEST PUSH2 0xA18 DUP3 DUP3 DUP6 PUSH2 0x954 JUMP JUMPDEST PUSH1 0x0 PUSH1 0x20 SWAP1 POP PUSH1 0x1F DUP4 GT PUSH1 0x1 DUP2 EQ PUSH2 0xA4B JUMPI PUSH1 0x0 DUP5 ISZERO PUSH2 0xA39 JUMPI DUP3 DUP8 ADD MLOAD SWAP1 POP JUMPDEST PUSH2 0xA43 DUP6 DUP3 PUSH2 0x9C5 JUMP JUMPDEST DUP7 SSTORE POP PUSH2 0xAAB JUMP JUMPDEST PUSH1 0x1F NOT DUP5 AND PUSH2 0xA59 DUP7 PUSH2 0x835 JUMP JUMPDEST PUSH1 0x0 JUMPDEST DUP3 DUP2 LT ISZERO PUSH2 0xA81 JUMPI DUP5 DUP10 ADD MLOAD DUP3 SSTORE PUSH1 0x1 DUP3 ADD SWAP2 POP PUSH1 0x20 DUP6 ADD SWAP5 POP PUSH1 0x20 DUP2 ADD SWAP1 POP PUSH2 0xA5C JUMP JUMPDEST DUP7 DUP4 LT ISZERO PUSH2 0xA9E JUMPI DUP5 DUP10 ADD MLOAD PUSH2 0xA9A PUSH1 0x1F DUP10 AND DUP3 PUSH2 0x9A7 JUMP JUMPDEST DUP4 SSTORE POP JUMPDEST PUSH1 0x1 PUSH1 0x2 DUP9 MUL ADD DUP9 SSTORE POP POP POP JUMPDEST POP POP POP POP POP POP JUMP INVALID LOG2 PUSH5 0x6970667358 0x22 SLT KECCAK256 0x2D 0xCE 0xED ADDRESS EXP 0xEA CODECOPY MLOAD SGT BLOCKHASH 0xDE 0xAF 0xE1 0x2C 0xA5 PUSH6 0x4C43463DA2D4 0x26 DUP3 0xC4 0xF7 0xA6 0xD DUP12 MSIZE RETURNDATACOPY 0xDD PUSH5 0x736F6C6343 STOP ADDMOD SGT STOP CALLER "
		},
		"gasEstimates": {
			"creation": {
				"codeDepositCost": "558600",
				"executionCost": "594",
				"totalCost": "559194"
			},
			"external": {
				"getEstCeVrai()": "2502",
				"getEtherAddress()": "2639",
				"getMaPhrase()": "infinite",
				"getNombre()": "2503",
				"getUnsignedNombre()": "2525",
				"setEstCeVrai(bool)": "24680",
				"setEtherAddress(address)": "24861",
				"setMaPhrase(string)": "infinite",
				"setNombre(int256)": "22542",
				"setUnsignedNombre(uint256)": "22565"
			}
		},
		"methodIdentifiers": {
			"getEstCeVrai()": "4237e534",
			"getEtherAddress()": "50e65c94",
			"getMaPhrase()": "ba126dac",
			"getNombre()": "d75cbf9b",
			"getUnsignedNombre()": "df6fd333",
			"setEstCeVrai(bool)": "02b76f91",
			"setEtherAddress(address)": "58a50ce8",
			"setMaPhrase(string)": "63a6aa5a",
			"setNombre(int256)": "afa3944d",
			"setUnsignedNombre(uint256)": "48a095a1"
		}
	},
	"abi": [
		{
			"inputs": [],
			"name": "getEstCeVrai",
			"outputs": [
				{
					"internalType": "bool",
					"name": "",
					"type": "bool"
				}
			],
			"stateMutability": "view",
			"type": "function"
		},
		{
			"inputs": [],
			"name": "getEtherAddress",
			"outputs": [
				{
					"internalType": "address",
					"name": "",
					"type": "address"
				}
			],
			"stateMutability": "view",
			"type": "function"
		},
		{
			"inputs": [],
			"name": "getMaPhrase",
			"outputs": [
				{
					"internalType": "string",
					"name": "",
					"type": "string"
				}
			],
			"stateMutability": "view",
			"type": "function"
		},
		{
			"inputs": [],
			"name": "getNombre",
			"outputs": [
				{
					"internalType": "int256",
					"name": "",
					"type": "int256"
				}
			],
			"stateMutability": "view",
			"type": "function"
		},
		{
			"inputs": [],
			"name": "getUnsignedNombre",
			"outputs": [
				{
					"internalType": "uint256",
					"name": "",
					"type": "uint256"
				}
			],
			"stateMutability": "view",
			"type": "function"
		},
		{
			"inputs": [
				{
					"internalType": "bool",
					"name": "_estCeVrai",
					"type": "bool"
				}
			],
			"name": "setEstCeVrai",
			"outputs": [],
			"stateMutability": "nonpayable",
			"type": "function"
		},
		{
			"inputs": [
				{
					"internalType": "address",
					"name": "_etherAddress",
					"type": "address"
				}
			],
			"name": "setEtherAddress",
			"outputs": [],
			"stateMutability": "nonpayable",
			"type": "function"
		},
		{
			"inputs": [
				{
					"internalType": "string",
					"name": "_maPhrase",
					"type": "string"
				}
			],
			"name": "setMaPhrase",
			"outputs": [],
			"stateMutability": "nonpayable",
			"type": "function"
		},
		{
			"inputs": [
				{
					"internalType": "int256",
					"name": "_nombre",
					"type": "int256"
				}
			],
			"name": "setNombre",
			"outputs": [],
			"stateMutability": "nonpayable",
			"type": "function"
		},
		{
			"inputs": [
				{
					"internalType": "uint256",
					"name": "_unsignedNombre",
					"type": "uint256"
				}
			],
			"name": "setUnsignedNombre",
			"outputs": [],
			"stateMutability": "nonpayable",
			"type": "function"
		}
	]
}