{
	"data": {
		"bytecode": {
			"linkReferences": {},
			"object": "608060405234801561001057600080fd5b5061036b806100206000396000f3fe608060405234801561001057600080fd5b50600436106100415760003560e01c80638269267914610046578063be88673114610050578063c17453651461006c575b600080fd5b61004e61009c565b005b61006a6004803603810190610065919061022c565b610195565b005b610086600480360381019061008191906102af565b610199565b60405161009391906102eb565b60405180910390f35b6001600290806001815401808255809150506001900390600052602060002001600090919091909150556001600390806001815401808255809150506001900390600052602060002001600090919091909150556000600190506000600180548060200260200160405190810160405280929190818152602001828054801561014457602002820191906000526020600020905b815481526020019060010190808311610130575b5050505050905060008260008154811061016157610160610306565b5b9060005260206000200181905550600c8160008151811061018557610184610306565b5b6020026020010181815250505050565b5050565b600181815481106101a957600080fd5b906000526020600020016000915090505481565b600080fd5b600080fd5b600080fd5b600080fd5b600080fd5b60008083601f8401126101ec576101eb6101c7565b5b8235905067ffffffffffffffff811115610209576102086101cc565b5b602083019150836020820283011115610225576102246101d1565b5b9250929050565b60008060208385031215610243576102426101bd565b5b600083013567ffffffffffffffff811115610261576102606101c2565b5b61026d858286016101d6565b92509250509250929050565b6000819050919050565b61028c81610279565b811461029757600080fd5b50565b6000813590506102a981610283565b92915050565b6000602082840312156102c5576102c46101bd565b5b60006102d38482850161029a565b91505092915050565b6102e581610279565b82525050565b600060208201905061030060008301846102dc565b92915050565b7f4e487b7100000000000000000000000000000000000000000000000000000000600052603260045260246000fdfea264697066735822122084eebfce2caa2044348c97f5049b4f400ac8b80686d49124e1e5e8cb2327507464736f6c63430008130033",
			"opcodes": "PUSH1 0x80 PUSH1 0x40 MSTORE CALLVALUE DUP1 ISZERO PUSH2 0x10 JUMPI PUSH1 0x0 DUP1 REVERT JUMPDEST POP PUSH2 0x36B DUP1 PUSH2 0x20 PUSH1 0x0 CODECOPY PUSH1 0x0 RETURN INVALID PUSH1 0x80 PUSH1 0x40 MSTORE CALLVALUE DUP1 ISZERO PUSH2 0x10 JUMPI PUSH1 0x0 DUP1 REVERT JUMPDEST POP PUSH1 0x4 CALLDATASIZE LT PUSH2 0x41 JUMPI PUSH1 0x0 CALLDATALOAD PUSH1 0xE0 SHR DUP1 PUSH4 0x82692679 EQ PUSH2 0x46 JUMPI DUP1 PUSH4 0xBE886731 EQ PUSH2 0x50 JUMPI DUP1 PUSH4 0xC1745365 EQ PUSH2 0x6C JUMPI JUMPDEST PUSH1 0x0 DUP1 REVERT JUMPDEST PUSH2 0x4E PUSH2 0x9C JUMP JUMPDEST STOP JUMPDEST PUSH2 0x6A PUSH1 0x4 DUP1 CALLDATASIZE SUB DUP2 ADD SWAP1 PUSH2 0x65 SWAP2 SWAP1 PUSH2 0x22C JUMP JUMPDEST PUSH2 0x195 JUMP JUMPDEST STOP JUMPDEST PUSH2 0x86 PUSH1 0x4 DUP1 CALLDATASIZE SUB DUP2 ADD SWAP1 PUSH2 0x81 SWAP2 SWAP1 PUSH2 0x2AF JUMP JUMPDEST PUSH2 0x199 JUMP JUMPDEST PUSH1 0x40 MLOAD PUSH2 0x93 SWAP2 SWAP1 PUSH2 0x2EB JUMP JUMPDEST PUSH1 0x40 MLOAD DUP1 SWAP2 SUB SWAP1 RETURN JUMPDEST PUSH1 0x1 PUSH1 0x2 SWAP1 DUP1 PUSH1 0x1 DUP2 SLOAD ADD DUP1 DUP3 SSTORE DUP1 SWAP2 POP POP PUSH1 0x1 SWAP1 SUB SWAP1 PUSH1 0x0 MSTORE PUSH1 0x20 PUSH1 0x0 KECCAK256 ADD PUSH1 0x0 SWAP1 SWAP2 SWAP1 SWAP2 SWAP1 SWAP2 POP SSTORE PUSH1 0x1 PUSH1 0x3 SWAP1 DUP1 PUSH1 0x1 DUP2 SLOAD ADD DUP1 DUP3 SSTORE DUP1 SWAP2 POP POP PUSH1 0x1 SWAP1 SUB SWAP1 PUSH1 0x0 MSTORE PUSH1 0x20 PUSH1 0x0 KECCAK256 ADD PUSH1 0x0 SWAP1 SWAP2 SWAP1 SWAP2 SWAP1 SWAP2 POP SSTORE PUSH1 0x0 PUSH1 0x1 SWAP1 POP PUSH1 0x0 PUSH1 0x1 DUP1 SLOAD DUP1 PUSH1 0x20 MUL PUSH1 0x20 ADD PUSH1 0x40 MLOAD SWAP1 DUP2 ADD PUSH1 0x40 MSTORE DUP1 SWAP3 SWAP2 SWAP1 DUP2 DUP2 MSTORE PUSH1 0x20 ADD DUP3 DUP1 SLOAD DUP1 ISZERO PUSH2 0x144 JUMPI PUSH1 0x20 MUL DUP3 ADD SWAP2 SWAP1 PUSH1 0x0 MSTORE PUSH1 0x20 PUSH1 0x0 KECCAK256 SWAP1 JUMPDEST DUP2 SLOAD DUP2 MSTORE PUSH1 0x20 ADD SWAP1 PUSH1 0x1 ADD SWAP1 DUP1 DUP4 GT PUSH2 0x130 JUMPI JUMPDEST POP POP POP POP POP SWAP1 POP PUSH1 0x0 DUP3 PUSH1 0x0 DUP2 SLOAD DUP2 LT PUSH2 0x161 JUMPI PUSH2 0x160 PUSH2 0x306 JUMP JUMPDEST JUMPDEST SWAP1 PUSH1 0x0 MSTORE PUSH1 0x20 PUSH1 0x0 KECCAK256 ADD DUP2 SWAP1 SSTORE POP PUSH1 0xC DUP2 PUSH1 0x0 DUP2 MLOAD DUP2 LT PUSH2 0x185 JUMPI PUSH2 0x184 PUSH2 0x306 JUMP JUMPDEST JUMPDEST PUSH1 0x20 MUL PUSH1 0x20 ADD ADD DUP2 DUP2 MSTORE POP POP POP POP JUMP JUMPDEST POP POP JUMP JUMPDEST PUSH1 0x1 DUP2 DUP2 SLOAD DUP2 LT PUSH2 0x1A9 JUMPI PUSH1 0x0 DUP1 REVERT JUMPDEST SWAP1 PUSH1 0x0 MSTORE PUSH1 0x20 PUSH1 0x0 KECCAK256 ADD PUSH1 0x0 SWAP2 POP SWAP1 POP SLOAD DUP2 JUMP JUMPDEST PUSH1 0x0 DUP1 REVERT JUMPDEST PUSH1 0x0 DUP1 REVERT JUMPDEST PUSH1 0x0 DUP1 REVERT JUMPDEST PUSH1 0x0 DUP1 REVERT JUMPDEST PUSH1 0x0 DUP1 REVERT JUMPDEST PUSH1 0x0 DUP1 DUP4 PUSH1 0x1F DUP5 ADD SLT PUSH2 0x1EC JUMPI PUSH2 0x1EB PUSH2 0x1C7 JUMP JUMPDEST JUMPDEST DUP3 CALLDATALOAD SWAP1 POP PUSH8 0xFFFFFFFFFFFFFFFF DUP2 GT ISZERO PUSH2 0x209 JUMPI PUSH2 0x208 PUSH2 0x1CC JUMP JUMPDEST JUMPDEST PUSH1 0x20 DUP4 ADD SWAP2 POP DUP4 PUSH1 0x20 DUP3 MUL DUP4 ADD GT ISZERO PUSH2 0x225 JUMPI PUSH2 0x224 PUSH2 0x1D1 JUMP JUMPDEST JUMPDEST SWAP3 POP SWAP3 SWAP1 POP JUMP JUMPDEST PUSH1 0x0 DUP1 PUSH1 0x20 DUP4 DUP6 SUB SLT ISZERO PUSH2 0x243 JUMPI PUSH2 0x242 PUSH2 0x1BD JUMP JUMPDEST JUMPDEST PUSH1 0x0 DUP4 ADD CALLDATALOAD PUSH8 0xFFFFFFFFFFFFFFFF DUP2 GT ISZERO PUSH2 0x261 JUMPI PUSH2 0x260 PUSH2 0x1C2 JUMP JUMPDEST JUMPDEST PUSH2 0x26D DUP6 DUP3 DUP7 ADD PUSH2 0x1D6 JUMP JUMPDEST SWAP3 POP SWAP3 POP POP SWAP3 POP SWAP3 SWAP1 POP JUMP JUMPDEST PUSH1 0x0 DUP2 SWAP1 POP SWAP2 SWAP1 POP JUMP JUMPDEST PUSH2 0x28C DUP2 PUSH2 0x279 JUMP JUMPDEST DUP2 EQ PUSH2 0x297 JUMPI PUSH1 0x0 DUP1 REVERT JUMPDEST POP JUMP JUMPDEST PUSH1 0x0 DUP2 CALLDATALOAD SWAP1 POP PUSH2 0x2A9 DUP2 PUSH2 0x283 JUMP JUMPDEST SWAP3 SWAP2 POP POP JUMP JUMPDEST PUSH1 0x0 PUSH1 0x20 DUP3 DUP5 SUB SLT ISZERO PUSH2 0x2C5 JUMPI PUSH2 0x2C4 PUSH2 0x1BD JUMP JUMPDEST JUMPDEST PUSH1 0x0 PUSH2 0x2D3 DUP5 DUP3 DUP6 ADD PUSH2 0x29A JUMP JUMPDEST SWAP2 POP POP SWAP3 SWAP2 POP POP JUMP JUMPDEST PUSH2 0x2E5 DUP2 PUSH2 0x279 JUMP JUMPDEST DUP3 MSTORE POP POP JUMP JUMPDEST PUSH1 0x0 PUSH1 0x20 DUP3 ADD SWAP1 POP PUSH2 0x300 PUSH1 0x0 DUP4 ADD DUP5 PUSH2 0x2DC JUMP JUMPDEST SWAP3 SWAP2 POP POP JUMP JUMPDEST PUSH32 0x4E487B7100000000000000000000000000000000000000000000000000000000 PUSH1 0x0 MSTORE PUSH1 0x32 PUSH1 0x4 MSTORE PUSH1 0x24 PUSH1 0x0 REVERT INVALID LOG2 PUSH5 0x6970667358 0x22 SLT KECCAK256 DUP5 0xEE 0xBF 0xCE 0x2C 0xAA KECCAK256 PREVRANDAO CALLVALUE DUP13 SWAP8 CREATE2 DIV SWAP12 0x4F BLOCKHASH EXP 0xC8 0xB8 MOD DUP7 0xD4 SWAP2 0x24 0xE1 0xE5 0xE8 0xCB 0x23 0x27 POP PUSH21 0x64736F6C6343000813003300000000000000000000 "
		},
		"gasEstimates": {
			"creation": {
				"codeDepositCost": "175000",
				"executionCost": "220",
				"totalCost": "175220"
			},
			"external": {
				"autre(uint256[])": "474",
				"doSomething()": "infinite",
				"monArray(uint256)": "infinite"
			}
		},
		"methodIdentifiers": {
			"autre(uint256[])": "be886731",
			"doSomething()": "82692679",
			"monArray(uint256)": "c1745365"
		}
	},
	"abi": [
		{
			"inputs": [
				{
					"internalType": "uint256[]",
					"name": "_users",
					"type": "uint256[]"
				}
			],
			"name": "autre",
			"outputs": [],
			"stateMutability": "nonpayable",
			"type": "function"
		},
		{
			"inputs": [],
			"name": "doSomething",
			"outputs": [],
			"stateMutability": "nonpayable",
			"type": "function"
		},
		{
			"inputs": [
				{
					"internalType": "uint256",
					"name": "",
					"type": "uint256"
				}
			],
			"name": "monArray",
			"outputs": [
				{
					"internalType": "uint256",
					"name": "",
					"type": "uint256"
				}
			],
			"stateMutability": "view",
			"type": "function"
		}
	]
}