{
	"data": {
		"bytecode": {
			"linkReferences": {},
			"object": "608060405234801561001057600080fd5b506102a3806100206000396000f3fe60806040526004361061003f5760003560e01c80633ca1c3761461004457806345de66111461004e5780637fe056a014610079578063d75cbf9b146100b6575b600080fd5b61004c6100e1565b005b34801561005a57600080fd5b506100636100ea565b6040516100709190610127565b60405180910390f35b34801561008557600080fd5b506100a0600480360381019061009b9190610173565b6100f0565b6040516100ad9190610127565b60405180910390f35b3480156100c257600080fd5b506100cb610106565b6040516100d891906101e1565b60405180910390f35b34600181905550565b60015481565b60006002826100ff919061022b565b9050919050565b600033905090565b6000819050919050565b6101218161010e565b82525050565b600060208201905061013c6000830184610118565b92915050565b600080fd5b6101508161010e565b811461015b57600080fd5b50565b60008135905061016d81610147565b92915050565b60006020828403121561018957610188610142565b5b60006101978482850161015e565b91505092915050565b600073ffffffffffffffffffffffffffffffffffffffff82169050919050565b60006101cb826101a0565b9050919050565b6101db816101c0565b82525050565b60006020820190506101f660008301846101d2565b92915050565b7f4e487b7100000000000000000000000000000000000000000000000000000000600052601160045260246000fd5b60006102368261010e565b91506102418361010e565b925082820261024f8161010e565b91508282048414831517610266576102656101fc565b5b509291505056fea2646970667358221220e84bb51ada5de5277844471943a046aa882503993b5da348d71a8b3a327e764164736f6c63430008130033",
			"opcodes": "PUSH1 0x80 PUSH1 0x40 MSTORE CALLVALUE DUP1 ISZERO PUSH2 0x10 JUMPI PUSH1 0x0 DUP1 REVERT JUMPDEST POP PUSH2 0x2A3 DUP1 PUSH2 0x20 PUSH1 0x0 CODECOPY PUSH1 0x0 RETURN INVALID PUSH1 0x80 PUSH1 0x40 MSTORE PUSH1 0x4 CALLDATASIZE LT PUSH2 0x3F JUMPI PUSH1 0x0 CALLDATALOAD PUSH1 0xE0 SHR DUP1 PUSH4 0x3CA1C376 EQ PUSH2 0x44 JUMPI DUP1 PUSH4 0x45DE6611 EQ PUSH2 0x4E JUMPI DUP1 PUSH4 0x7FE056A0 EQ PUSH2 0x79 JUMPI DUP1 PUSH4 0xD75CBF9B EQ PUSH2 0xB6 JUMPI JUMPDEST PUSH1 0x0 DUP1 REVERT JUMPDEST PUSH2 0x4C PUSH2 0xE1 JUMP JUMPDEST STOP JUMPDEST CALLVALUE DUP1 ISZERO PUSH2 0x5A JUMPI PUSH1 0x0 DUP1 REVERT JUMPDEST POP PUSH2 0x63 PUSH2 0xEA JUMP JUMPDEST PUSH1 0x40 MLOAD PUSH2 0x70 SWAP2 SWAP1 PUSH2 0x127 JUMP JUMPDEST PUSH1 0x40 MLOAD DUP1 SWAP2 SUB SWAP1 RETURN JUMPDEST CALLVALUE DUP1 ISZERO PUSH2 0x85 JUMPI PUSH1 0x0 DUP1 REVERT JUMPDEST POP PUSH2 0xA0 PUSH1 0x4 DUP1 CALLDATASIZE SUB DUP2 ADD SWAP1 PUSH2 0x9B SWAP2 SWAP1 PUSH2 0x173 JUMP JUMPDEST PUSH2 0xF0 JUMP JUMPDEST PUSH1 0x40 MLOAD PUSH2 0xAD SWAP2 SWAP1 PUSH2 0x127 JUMP JUMPDEST PUSH1 0x40 MLOAD DUP1 SWAP2 SUB SWAP1 RETURN JUMPDEST CALLVALUE DUP1 ISZERO PUSH2 0xC2 JUMPI PUSH1 0x0 DUP1 REVERT JUMPDEST POP PUSH2 0xCB PUSH2 0x106 JUMP JUMPDEST PUSH1 0x40 MLOAD PUSH2 0xD8 SWAP2 SWAP1 PUSH2 0x1E1 JUMP JUMPDEST PUSH1 0x40 MLOAD DUP1 SWAP2 SUB SWAP1 RETURN JUMPDEST CALLVALUE PUSH1 0x1 DUP2 SWAP1 SSTORE POP JUMP JUMPDEST PUSH1 0x1 SLOAD DUP2 JUMP JUMPDEST PUSH1 0x0 PUSH1 0x2 DUP3 PUSH2 0xFF SWAP2 SWAP1 PUSH2 0x22B JUMP JUMPDEST SWAP1 POP SWAP2 SWAP1 POP JUMP JUMPDEST PUSH1 0x0 CALLER SWAP1 POP SWAP1 JUMP JUMPDEST PUSH1 0x0 DUP2 SWAP1 POP SWAP2 SWAP1 POP JUMP JUMPDEST PUSH2 0x121 DUP2 PUSH2 0x10E JUMP JUMPDEST DUP3 MSTORE POP POP JUMP JUMPDEST PUSH1 0x0 PUSH1 0x20 DUP3 ADD SWAP1 POP PUSH2 0x13C PUSH1 0x0 DUP4 ADD DUP5 PUSH2 0x118 JUMP JUMPDEST SWAP3 SWAP2 POP POP JUMP JUMPDEST PUSH1 0x0 DUP1 REVERT JUMPDEST PUSH2 0x150 DUP2 PUSH2 0x10E JUMP JUMPDEST DUP2 EQ PUSH2 0x15B JUMPI PUSH1 0x0 DUP1 REVERT JUMPDEST POP JUMP JUMPDEST PUSH1 0x0 DUP2 CALLDATALOAD SWAP1 POP PUSH2 0x16D DUP2 PUSH2 0x147 JUMP JUMPDEST SWAP3 SWAP2 POP POP JUMP JUMPDEST PUSH1 0x0 PUSH1 0x20 DUP3 DUP5 SUB SLT ISZERO PUSH2 0x189 JUMPI PUSH2 0x188 PUSH2 0x142 JUMP JUMPDEST JUMPDEST PUSH1 0x0 PUSH2 0x197 DUP5 DUP3 DUP6 ADD PUSH2 0x15E JUMP JUMPDEST SWAP2 POP POP SWAP3 SWAP2 POP POP JUMP JUMPDEST PUSH1 0x0 PUSH20 0xFFFFFFFFFFFFFFFFFFFFFFFFFFFFFFFFFFFFFFFF DUP3 AND SWAP1 POP SWAP2 SWAP1 POP JUMP JUMPDEST PUSH1 0x0 PUSH2 0x1CB DUP3 PUSH2 0x1A0 JUMP JUMPDEST SWAP1 POP SWAP2 SWAP1 POP JUMP JUMPDEST PUSH2 0x1DB DUP2 PUSH2 0x1C0 JUMP JUMPDEST DUP3 MSTORE POP POP JUMP JUMPDEST PUSH1 0x0 PUSH1 0x20 DUP3 ADD SWAP1 POP PUSH2 0x1F6 PUSH1 0x0 DUP4 ADD DUP5 PUSH2 0x1D2 JUMP JUMPDEST SWAP3 SWAP2 POP POP JUMP JUMPDEST PUSH32 0x4E487B7100000000000000000000000000000000000000000000000000000000 PUSH1 0x0 MSTORE PUSH1 0x11 PUSH1 0x4 MSTORE PUSH1 0x24 PUSH1 0x0 REVERT JUMPDEST PUSH1 0x0 PUSH2 0x236 DUP3 PUSH2 0x10E JUMP JUMPDEST SWAP2 POP PUSH2 0x241 DUP4 PUSH2 0x10E JUMP JUMPDEST SWAP3 POP DUP3 DUP3 MUL PUSH2 0x24F DUP2 PUSH2 0x10E JUMP JUMPDEST SWAP2 POP DUP3 DUP3 DIV DUP5 EQ DUP4 ISZERO OR PUSH2 0x266 JUMPI PUSH2 0x265 PUSH2 0x1FC JUMP JUMPDEST JUMPDEST POP SWAP3 SWAP2 POP POP JUMP INVALID LOG2 PUSH5 0x6970667358 0x22 SLT KECCAK256 0xE8 0x4B 0xB5 BYTE 0xDA 0x5D 0xE5 0x27 PUSH25 0x44471943A046AA882503993B5DA348D71A8B3A327E76416473 PUSH16 0x6C634300081300330000000000000000 "
		},
		"gasEstimates": {
			"creation": {
				"codeDepositCost": "135000",
				"executionCost": "183",
				"totalCost": "135183"
			},
			"external": {
				"fois2(uint256)": "infinite",
				"getNombre()": "429",
				"nombreAccessible()": "2429",
				"paiement()": "22211"
			},
			"internal": {
				"_presqueSecretFois2()": "infinite",
				"_secreteFois2()": "infinite"
			}
		},
		"methodIdentifiers": {
			"fois2(uint256)": "7fe056a0",
			"getNombre()": "d75cbf9b",
			"nombreAccessible()": "45de6611",
			"paiement()": "3ca1c376"
		}
	},
	"abi": [
		{
			"inputs": [
				{
					"internalType": "uint256",
					"name": "_nombre",
					"type": "uint256"
				}
			],
			"name": "fois2",
			"outputs": [
				{
					"internalType": "uint256",
					"name": "",
					"type": "uint256"
				}
			],
			"stateMutability": "pure",
			"type": "function"
		},
		{
			"inputs": [],
			"name": "getNombre",
			"outputs": [
				{
					"internalType": "address",
					"name": "",
					"type": "address"
				}
			],
			"stateMutability": "view",
			"type": "function"
		},
		{
			"inputs": [],
			"name": "nombreAccessible",
			"outputs": [
				{
					"internalType": "uint256",
					"name": "",
					"type": "uint256"
				}
			],
			"stateMutability": "view",
			"type": "function"
		},
		{
			"inputs": [],
			"name": "paiement",
			"outputs": [],
			"stateMutability": "payable",
			"type": "function"
		}
	]
}